S01C00007465726D6F5F7465706C6963615F365F312832292E73726563F8
S113000012C02CC02BC02AC029C028C027C026C0BB
S113001025C079C123C022C021C020C01FC01EC07A
S11300201DC01CC01BC011241FBECFE5D4E0DEBF21
S1130030CDBF10E0A0E6B0E0ECE4F4E002C005902F
S11300400D92A236B107D9F720E0A2E6B0E001C0D4
S11300501D92A336B207E1F79DD1F6C1D1CFCF935C
S1130060DF93FC01DB012C9181E090E0BC0102C034
S1130070660F771F4A95E2F7AB01822F862B8C938C
S11300809081862F809598239083CDEED2E021979E
S1130090F1F700C000009081492B40839C91892393
S11300A08C938BED95E00197F1F700C00000DF9190
S11300B0CF910895FB01F894608121E030E0D901EB
S11300C002C0AA0FBB1F4A95E2F7AD01262F2A2BC7
S11300D02083DC012C91409524232C93B8E0BA951D
S11300E0F1F7808148234083789488E98A95F1F771
S11300F00895FB01F894608121E030E0D90102C049
S1130100AA0FBB1F4A95E2F7AD01262F2A2B2083A5
S1130110DC012C91409524232C93B0E8BA95F1F797
S113012080814823408380E28A95F1F7789408958A
S1130130CF92DF92EF92FF920F931F93CF93DF93AF
S11301407C018B01C42ED22EC8E0D0E0D0FE05C0C5
S11301504C2DB801C701AEDF04C04C2DB801C70156
S1130160C8DFD6942197209789F7DF91CF911F910B
S11301700F91FF90EF90DF90CF9008954F925F9290
S11301806F927F928F929F92AF92BF92CF92DF92A3
S1130190EF92FF920F931F93CF93DF932C01FB01F8
S11301A0F894AE2CB12C1A141B040CF04EC061E070
S11301B070E0022E02C0660F771F0A94E2F7862EC3
S11301C0962E9094E02EF12EC12CD12C712C612C02
S11301D007E010E0021B1109D7011C92272D362DD0
S11301E0808188298083E201888189218883D8E0FD
S11301F0DA95F1F780818921808380E48A95F1F78B
S1130200EA01888190E086239723002E02C0880F9C
S1130210991F0A94E2F79C91892B2730310514F039
S11302208C9302C086958C93D8E5DA95F1F72F5F0D
S11302303F4F28303105A1F68FEFC81AD80ACFEF07
S1130240EC1AFC0ACA14DB043CF27894DF91CF91D7
S11302501F910F91FF90EF90DF90CF90BF90AF90E0
S11302609F908F907F906F905F904F9008958F92A2
S11302709F92AF92BF92CF92DF92EF92FF920F9331
S11302801F93CF93DF93CDB7DEB729970FB6F894BA
S1130290DEBF0FBECDBF6C015B014A01F22E422FBF
S11302A0DEDE2CEC4F2DB501C60142DF2EEB4F2DC7
S11302B0B501C6013DDF0F2EF9E0EF2EF02D8E01C2
S11302C00F5F1F4F2F2DA401B501C60157DF2A81EF
S11302D080E1289F90011124898182958F70822B5F
S11302E029960FB6F894DEBF0FBECDBFDF91CF9134
S11302F01F910F91FF90EF90DF90CF90BF90AF9040
S11303009F908F9008951F920F920FB60F92112411
S11303108F939F93A89580916200882369F082B39C
S11303208E7F82609FEF95BB82BB80916100809538
S113033085BB109262000DC082B38D7F81609FEFF8
S113034095BB82BB80916000809585BB81E08093E2
S113035062009F918F910F900FBE0F901F90189580
S1130360FF920F931F93CF93DF93EC018B01F22E37
S1130370422F75DE2CEC4F2DB801CE01D9DE24E4DA
S11303804F2DB801CE01D4DEDF91CF911F910F9193
S1130390FF9008958FEF84BB15BA81BB12BA12BACD
S11303A0789489B7816089BF84E083BF2DE088E1B8
S11303B090E00FB6F894A895809341000FBE209367
S11303C0410024E040E350E061E370E082E390E028
S11303D0C7DF26E040E350E061E370E082E390E0B1
S11303E0BFDF2FE78FE492E1215080409040E1F796
S11303F000C0000024E040E350E061E370E082E3E9
S113040090E035DF8093610026E040E350E061E353
S113041070E082E390E02BDF8093600080916100C4
S1130420823108F4959880916100843108F0959A9E
S113043080916000823108F4929880916000843148
S10F044008F4BFCF929ABDCFF894FFCF10
S105044CFFFFAC
S9030000FC
