:1000000012C02CC02BC02AC029C028C027C026C0BF
:1000100025C060C123C022C021C020C01FC01EC097
:100020001DC01CC01BC011241FBECFE5D4E0DEBF25
:10003000CDBF10E0A0E6B0E0E4E1F4E002C005903E
:100040000D92A236B107D9F720E0A2E6B0E001C0D8
:100050001D92A336B207E1F784D1DAC1D1CFCF9395
:10006000DF93DC01FB01808121E030E002C0220F40
:10007000331F4A95E2F7822B80838C91922F9095C3
:1000800089238C93CDEED2E02197F1F700C00000D8
:100090008C91282B2C938081982390838BED95E075
:1000A0000197F1F700C00000DF91CF910895DC01C6
:1000B000FB01F894908121E030E002C0220F331F51
:1000C0004A95E2F7922B90839C91209592239C93E2
:1000D00088E08A95F1F7808128232083789488E945
:1000E0008A95F1F70895DC01FB01F894908121E0F5
:1000F00030E002C0220F331F4A95E2F7922B908323
:100100009C91209592239C9380E88A95F1F78081B9
:100110002823208380E28A95F1F778940895CF927E
:10012000DF92EF92FF920F931F93CF93DF936C01B7
:100130007B01042F122FC8E0D0E010FF05C0402F34
:10014000B701C601B4DF04C0402FB701C601CBDF41
:100150001695219791F7DF91CF911F910F91FF9005
:10016000EF90DF90CF9008958F929F92AF92BF92C1
:10017000CF92DF92EF92FF920F931F93CF93DF9373
:10018000DB01F894EE2009F44BC061E070E0022E30
:1001900002C0660F771F0A94E2F7A62EB62EB0941F
:1001A00068010E0D111DE7E0F0E07F01E21AF10891
:1001B0004601E6011882E0E0F0E02C912A292C9318
:1001C000EC0128812B212883D8E0DA95F1F72C91D6
:1001D0002B212C9320E42A95F1F7EA01288130E0C5
:1001E000262337230E2C02C0220F331F0A94E2F776
:1001F000E4013881232BE730F10514F0288303C094
:100200002695E4012883D8E5DA95F1F73196E830B0
:10021000F10599F6EFEFCE1ADE0A0C151D0541F631
:100220007894DF91CF911F910F91FF90EF90DF9025
:10023000CF90BF90AF909F908F9008958F929F9294
:10024000AF92BF92CF92DF92EF92FF920F931F93E4
:10025000CF93DF93CDB7DEB729970FB6F894DEBF03
:100260000FBECDBF6C015B014A01F22E422FF7DEBB
:100270002CEC4F2DB501C60152DF2EEB4F2DB501F1
:10028000C6014DDF0F2EF9E0EF2EF02D8E010F5F2E
:100290001F4F2F2DA401B501C60166DF898182950C
:1002A0008F702A8190E1299F90011124822B299639
:1002B0000FB6F894DEBF0FBECDBFDF91CF911F9177
:1002C0000F91FF90EF90DF90CF90BF90AF909F90F5
:1002D0008F9008951F920F920FB60F9211248F9353
:1002E0009F93A89580916200882369F082B38E7FE6
:1002F00082609FEF95BB82BB80916100809585BB3A
:10030000109262000DC082B38D7F81609FEF95BB1C
:1003100082BB80916000809585BB81E08093620004
:100320009F918F910F900FBE0F901F901895FF9285
:100330000F931F93CF93DF93EC018B01F22E422F8B
:100340008EDE2CEC4F2DB801CE01E9DE24E44F2DDA
:10035000B801CE01E4DEDF91CF911F910F91FF90A4
:1003600008958FEF84BB15BA81BB12BA12BA789484
:1003700089B7816089BF84E083BF9DE088E10FB6C3
:10038000F894A89581BD0FBE91BD24E040E350E0F4
:1003900061E370E082E390E0CADF26E040E350E0F2
:1003A00061E370E082E390E0C2DF2FE78FE492E147
:1003B000215080409040E1F700C0000024E040E37D
:1003C00050E061E370E082E390E038DF8093610009
:1003D00026E040E350E061E370E082E390E02EDF4E
:1003E0008093600080916100823108F4939880913D
:1003F0006100843108F0939A80916000823108F4A2
:10040000929880916000843108F4BFCF929ABDCF5A
:04041000F894FFCF8E
:02041400FFFFE8
:00000001FF
