:1000000012C02CC02BC02AC029C028C027C026C0BF
:1000100025C07EC123C022C021C020C01FC01EC079
:100020001DC01CC01BC011241FBECFE5D4E0DEBF25
:10003000CDBF10E0A0E6B0E0E6E5F4E002C0059038
:100040000D92A236B107D9F720E0A2E6B0E001C0D8
:100050001D92A336B207E1F7A2D1FBC1D1CFCF9356
:10006000DF93FC01DB012C9181E090E0BC0102C038
:10007000660F771F4A95E2F7AB01862F962F922BDA
:100080009C939081409594239083C3EFD1E0219776
:10009000F1F700C000009081892B80838C91482368
:1000A0004C9387EE93E00197F1F700C00000DF91D9
:1000B000CF910895FB01F894608121E030E0D901EF
:1000C00002C0AA0FBB1F4A95E2F7AD01262F2A2BCB
:1000D0002083DC012C91409524232C93B5E0BA9524
:1000E000F1F70000808148234083789485E68A9563
:1000F000F1F700000895FB01F894608121E030E001
:10010000D90102C0AA0FBB1F4A95E2F7AD01262F05
:100110002A2B2083DC012C91409524232C93B5E5D8
:10012000BA95F1F7000080814823408385E18A95E4
:10013000F1F7000078940895CF92DF92EF92FF924A
:100140000F931F93CF93DF937C018B01C42ED22E8C
:10015000C8E0D0E0D0FE05C04C2DB801C701AADF31
:1001600004C04C2DB801C701C6DFD694219791F782
:10017000DF91CF911F910F91FF90EF90DF90CF9083
:1001800008954F925F926F927F928F929F92AF925B
:10019000BF92CF92DF92EF92FF920F931F93CF9374
:1001A000DF932C01FB01F894AE2CB12C1A141B0424
:1001B0000CF050C061E070E0022E02C0660F771FA5
:1001C0000A94E2F7662E762E7094E02EF12EC12C62
:1001D000D12C812C912C07E010E0021B1109D701D2
:1001E0001C929401808186298083E2018881872185
:1001F0008883D5E0DA95F1F700008081872180833C
:100200008AE28A95F1F700C0EA01888190E08623AE
:100210009723002E02C0880F991F0A94E2F79C9141
:10022000892B2730310514F08C9302C086958C936E
:10023000DAE3DA95F1F700C02F5F3F4F2830310540
:1002400089F68FEFC81AD80ACFEFEC1AFC0ACA1445
:10025000DB042CF27894DF91CF911F910F91FF90E6
:10026000EF90DF90CF90BF90AF909F908F907F9056
:100270006F905F904F9008958F929F92AF92BF9230
:10028000CF92DF92EF92FF920F931F93CF93DF9362
:10029000CDB7DEB729970FB6F894DEBF0FBECDBF3E
:1002A0006C015B014A01F22E422FD9DE2CEC4F2D5E
:1002B000B501C60141DF2EEB4F2DB501C6013CDF74
:1002C0000F2EF9E0EF2EF02D8E010F5F1F4F2F2D17
:1002D000A401B501C60155DF2A8180E1289F900164
:1002E0001124898182958F70822B29960FB6F894FC
:1002F000DEBF0FBECDBFDF91CF911F910F91FF9059
:10030000EF90DF90CF90BF90AF909F908F90089527
:100310001F920F920FB60F9211248F939F93A8955F
:1003200080916200882369F082B38E7F82609FEFA4
:1003300095BB82BB80916100809585BB1092620065
:100340000DC082B38D7F81609FEF95BB82BB809192
:100350006000809585BB81E0809362009F918F91C2
:100360000F900FBE0F901F901895FF920F931F9341
:10037000CF93DF93EC018B01F22E422F70DE2CEC39
:100380004F2DB801CE01D8DE24E44F2DB801CE01A7
:10039000D3DEDF91CF911F910F91FF9008958FEFE2
:1003A00084BB15BA81BB8CE082BB789489B781602D
:1003B00089BF84E083BF2DE088E190E00FB6F89418
:1003C000A895809341000FBE2093410024E040E3B4
:1003D00050E061E370E082E390E0C7DF25E040E3B6
:1003E00050E061E370E082E390E0BFDF2FEF84E351
:1003F0009CE0215080409040E1F700C0000024E0E4
:1004000040E350E061E370E082E390E035DF809309
:10041000610025E040E350E061E370E082E390E0BA
:100420002BDF8093600080916100823108F4939803
:1004300080916100843108F0939A8091600082314C
:1004400008F4929880916000843108F4BFCF929AAA
:10045000BDCFF894FFCFFFFFFFFFFFFFFFFFFFFFC0
:10046000FFFFFFFFFFFFFFFFFFFFFFFFFFFFFFFF9C
:10047000FFFFFFFFFFFFFFFFFFFFFFFFFFFFFFFF8C
:10048000FFFFFFFFFFFFFFFFFFFFFFFFFFFFFFFF7C
:10049000FFFFFFFFFFFFFFFFFFFFFFFFFFFFFFFF6C
:00000001FF
