:1000000014C02CC02BC02AC02AC028C027C026C0BC
:1000100025C024C023C022C021C020C01FC01EC0D4
:100020001DC01CC01BC01AC019C011241FBECFEDBB
:10003000CDBF10E0A0E6B0E0EAE8F2E002C0059033
:100040000D92AA36B107D9F720E0AAE6B0E001C0C8
:100050001D92A337B207E1F764D015C1D1CF1F922B
:100060000F920FB60F9211248F939F9380916B0084
:100070008F5F80936B001DBC1CBC95B7843638F035
:1000800010926B0080916E008F5F80936E00809164
:100090006E008A3038F010926E0080916D008F5F94
:1000A00080936D0080916D00863038F010926D0065
:1000B000809171008F5F80937100809171008A3010
:1000C00038F01092710080916A008F5F80936A000F
:1000D00080916A00863038F010926A008091720038
:1000E0008F5F80937200809172008A3038F0109296
:1000F0007200809170008F5F80937000809170001B
:10010000823040F080917200843021F410927000AF
:10011000109272009F918F910F900FBE0F901F90C1
:100120001895CF93DF93CDB7DD27CA50CDBF8AE0B6
:10013000E0E6F0E0DE01119601900D928A95E1F77C
:1001400080E886BD16BC1BBA1ABA9FEF98BB97BB56
:1001500093E092BB9CE791BB10BE13BE12BE16BECD
:100160001CBE1FBC94E09EBD1DBC1CBC15BC14BCB9
:1001700092E09BBD90E79ABD19BC18BC1BBE15BE92
:1001800090E499BF1DB888B9789491E0959A8091D0
:100190007000E1E0F0E0EC0FFD1FE80FF11D808141
:1001A00088BBEFE9FFE03197F1F700C000009598B8
:1001B000949A80917200E1E0F0E0EC0FFD1FE80FEF
:1001C000F11D808188BB80916B00823310F0C49850
:1001D00001C0C49AEFE9FFE03197F1F700C00000D9
:1001E0009498939A80916A00E1E0F0E0EC0FFD1F93
:1001F000E80FF11D808188BBEFE9FFE03197F1F74F
:1002000000C000009398969A80917100E1E0F0E0C0
:10021000EC0FFD1FE80FF11D808188BBEFE9FFE0C7
:100220003197F1F700C000009698809911C0809135
:100230006F0081110DC0EFE9FFE03197F1F700C0C9
:100240000000809172008F5F8093720090936F0026
:10025000809910926F00819911C080916C0081117A
:100260000DC0EFE9FFE03197F1F700C00000809189
:1002700071008F5F8093710090936C00819B86CF9B
:0A02800010926C0083CFF894FFCFBA
:0A028A00129F381C9554501F1014E9
:00000001FF
